:100000000C9434000C9425010C9473010C94BE01E3
:100010000C9451000C9400020C9451000C9451006B
:100020000C9451000C9451000C9451000C9451000C
:100030000C9451000C9451000C9451000C945100FC
:100040000C9451000C9451000C9451000C945100EC
:100050000C9451000C9451000C9451000C945100DC
:100060000C9451000C94510011241FBECFEFD8E026
:10007000DEBFCDBF11E0A0E0B1E0E2E5F5E002C0F7
:1000800005900D92A037B107D9F721E0A0E7B1E0C4
:1000900001C01D92A037B207E1F70E9445020C94FF
:1000A000A7020C940000982F907F9695969598B98A
:1000B00098B19E7F98B998B1926098B9EFE9FFE046
:1000C0003197F1F700C0000098B19D7F98B9EFE338
:1000D000FCE93197F1F700C0000090E0880F991F0C
:1000E000880F991F8C7388B988B18E7F88B988B1C1
:1000F000826088B98FE99FE00197F1F700C00000A6
:1001000088B18D7F88B9EFE3FCE93197F1F700C042
:10011000000008958FEF87B98FE59AEE0197F1F708
:1001200000C0000082E00E94530088E20E94530059
:100130008CE00E94530086E00E94530081E00E9400
:10014000530080E80E9453000895982F907F969561
:10015000969598B998B1936098B9EFE9FFE0319717
:10016000F1F700C0000098B19D7F98B998B19E7FCB
:1001700098B9EFE3FCE93197F1F700C0000090E097
:10018000880F991F880F991F8C7388B988B1836075
:1001900088B98FE99FE00197F1F700C0000088B1AE
:1001A0008D7F88B988B18E7F88B9EFE3FCE93197FC
:1001B000F1F700C0000008950F931F93CF93DF93D2
:1001C0008C01C0E0D0E003C00E94A5002196F80198
:1001D000EC0FFD1F80818111F7CFDF91CF911F912F
:1001E0000F91089581E00E945300089582E00E94DB
:1001F000530008958CE10E945300089580680E9486
:1002000053000895806C0E94530008950F931F932C
:10021000CF93DF938C01862F90E00896880F880F8C
:10022000880F0E945300C0E0D0E007C0F801EC0F37
:10023000FD1F80810E94A5002196C830D105B4F32E
:10024000DF91CF911F910F9108951F920F920FB6DA
:100250000F9211242F933F934F935F936F937F934C
:100260008F939F93AF93BF93EF93FF930E94F200FE
:1002700086E80E94530084E00E94A50084E00E946A
:10028000A50084E00E94A50083E00E94020180E4B2
:1002900091E00E94DC0080E20E94A50086E00E94BE
:1002A000A50086E00E94A50086E00E94A5002FEF31
:1002B00089E698E1215080409040E1F700C00000BD
:1002C0000E94F200FF91EF91BF91AF919F918F91AA
:1002D0007F916F915F914F913F912F910F900FBE42
:1002E0000F901F9018951F920F920FB60F92112426
:1002F0002F933F934F935F936F937F938F939F932E
:10030000AF93BF93EF93FF930E94F20085E00E94AA
:10031000FE0087E491E00E94DC0086E00E94A500D8
:1003200086E80E94020185E00E94A50085E00E9407
:10033000A50085E00E94A50085E00E94A50085E05B
:100340000E94A5002FEF89E698E12150804090405F
:10035000E1F700C000000E94F200FF91EF91BF9111
:10036000AF919F918F917F916F915F914F913F914D
:100370002F910F900FBE0F901F9018951F920F9204
:100380000FB60F9211242F933F934F935F936F9368
:100390007F938F939F93AF93BF93EF93FF930E94AD
:1003A000F20086E80E94530087E00E94A50087E0E3
:1003B0000E94A50087E00E94A50085E00E9402013E
:1003C0008EE491E00E94DC002FEF89E698E1215055
:1003D00080409040E1F700C000000E94F200FF91D1
:1003E000EF91BF91AF919F918F917F916F915F91AD
:1003F0004F913F912F910F900FBE0F901F90189526
:100400001F920F920FB60F9211242F933F934F9389
:100410005F936F937F938F939F93AF93BF93EF936C
:10042000FF930E94F20086E80E94530082E00E943F
:10043000A50080E00E94A50081E00E94A50083E065
:100440000E94A50081E00E94020185E591E00E94E2
:10045000DC002FEF89E698E1215080409040E1F7E1
:1004600000C000000E94F200FF91EF91BF91AF9198
:100470009F918F917F916F915F914F913F912F91BC
:100480000F900FBE0F901F90189514B81AB881E006
:1004900085B98DE08BB9F8940E948A000E94F6001D
:1004A0000E94FA0060E088E191E00E94060161E0AC
:1004B00080E191E00E94060162E088E091E00E9404
:1004C000060163E080E091E00E94060164E088E3B9
:1004D00091E00E94060165E080E391E00E94060140
:1004E00066E088E291E00E94060167E080E291E028
:1004F0000E9406018DB381608DBBE9E6F0E080814A
:10050000836080838DB382608DBB808183608083B4
:10051000E8E6F0E080818460808380818083808150
:1005200081608083EBE6F0E0808181608083EDE68E
:10053000F0E08081816080830E94F20083E00E946D
:10054000020184E691E00E94DC007894FFCFF894E9
:02055000FFCFDB
:1005520000001F1E1C18000000001F0F07030000F0
:10056200041C1F1F1F1F1E1C04071F1F1F1F0F0716
:10057200111B1B1F151F0E0400001B1F1F0E040062
:100582000E1B1B0E04060404000A0A0011111F0EA2
:100592004A617A6D696E00466C6F726573005570C0
:1005A20069697461006C612056656E67616E7A617B
:1005B2002E2E2E00436F6D69656E7A612E2E2E00EF
:00000001FF
