:100000000C9434000C9451000C9438010C94510061
:100010000C9451000C9451000C9451000C9451001C
:100020000C9451000C9451000C9451000C9451000C
:100030000C9451000C9451000C9451000C945100FC
:100040000C9406010C9451000C9451000C94510036
:100050000C9451000C9451000C9451000C945100DC
:100060000C9451000C94510011241FBECFEFD8E026
:10007000DEBFCDBF11E0A0E0B1E0EEEEF3E002C0E4
:1000800005900D92A034B107D9F721E0A0E4B1E0CA
:1000900001C01D92A235B207E1F70E9492010C94B3
:1000A000F5010C940000982F907F9695969598B93D
:1000B00098B19E7F98B998B1926098B9EFE9FFE046
:1000C0003197F1F700C0000098B19D7F98B9EFE338
:1000D000FCE93197F1F700C0000090E0880F991F0C
:1000E000880F991F8C7388B988B18E7F88B988B1C1
:1000F000826088B98FE99FE00197F1F700C00000A6
:1001000088B18D7F88B9EFE3FCE93197F1F700C042
:10011000000008958FEF87B98FE59AEE0197F1F708
:1001200000C0000082E00E94530088E20E94530059
:100130008CE00E94530086E00E94530081E00E9400
:10014000530080E80E9453000895982F907F969561
:10015000969598B998B1936098B9EFE9FFE0319717
:10016000F1F700C0000098B19D7F98B998B19E7FCB
:1001700098B9EFE3FCE93197F1F700C0000090E097
:10018000880F991F880F991F8C7388B988B1836075
:1001900088B98FE99FE00197F1F700C0000088B1AE
:1001A0008D7F88B988B18E7F88B9EFE3FCE93197FC
:1001B000F1F700C0000008950F931F93CF93DF93D2
:1001C0008C01C0E0D0E003C00E94A5002196F80198
:1001D000EC0FFD1F80818111F7CFDF91CF911F912F
:1001E0000F91089581E00E945300089582E00E94DB
:1001F000530008958CE10E945300089580680E9486
:1002000053000895806C0E94530008951F920F922E
:100210000FB60F9211242F933F934F935F936F93D9
:100220007F938F939F93AF93BF93EF93FF930E941E
:10023000F20080E00E94FE0080E091E00E94DC007D
:1002400080E00E94020183E191E00E94DC00FF91C6
:10025000EF91BF91AF919F918F917F916F915F913E
:100260004F913F912F910F900FBE0F901F901895B7
:100270001F920F920FB60F9211242F933F934F931B
:100280005F936F937F938F939F93AF93BF93EF93FE
:10029000FF9386B590E090935101809350014AE01E
:1002A00060E471E00E94C0010E94F20080E00E94C0
:1002B000FE0087E291E00E94DC0083E00E940201E0
:1002C00082E391E00E94DC0080E491E00E94DC0087
:1002D0002FEF89E698E1215080409040E1F700C07F
:1002E00000000E94F20083E00E94FE0080E491E0A2
:1002F0000E94DC0083E00E9402018BE391E00E94F7
:10030000DC00FF91EF91BF91AF919F918F917F9111
:100310006F915F914F913F912F910F900FBE0F9072
:100320001F901895F8940E948A000E94F6000E947F
:10033000FA0080EF8AB988E18BB986E085BD81E05B
:1003400080936E0082E088BD16BC8DB382608DBB49
:10035000E9E6F0E080818360808378940E94F20077
:1003600083E00E9402018FE40E94A50080E50E94C4
:10037000A50085E40E94A5008EE40E94A500FFCFA1
:10038000BB274A3031F4992322F4BDE29095819540
:100390009F4F0C94CC01BB27FB015527AA27880F40
:1003A000991FAA1FA41710F0A41B83955051B9F7E9
:1003B000A05DAA3308F0A95DA193009779F7B11168
:1003C000B1931192CB010C94E501DC01FC01672F84
:1003D00071917723E1F7329704C07C916D9370831C
:0E03E0006291AE17BF07C8F30895F894FFCFDF
:1003EE0053692C206C6C6567616D6F7320612020E2
:1003FE003130006573706572656D6F73206F747246
:10040E006F206C6F7465004269656E76656E696407
:10041E006F00636C69656E746520004F50454E0029
:00000001FF
