S01C000050365F4672656375656E6369617354696D6572302E737265638A
S11300000C9434000C9451000C9451000C94510045
S11300100C9451000C9451000C9451000C94510018
S11300200C9451000C9451000C9451000C94510008
S11300300C9451000C9451000C9451000C945100F8
S11300400C9451000C9451000C9451000C945100E8
S11300500C9451000C9451000C9451000C945100D8
S11300600C9451000C94510011241FBECFEFD8E022
S1130070DEBFCDBF11E0A0E0B1E0EAEEF3E002C0E4
S113008005900D92AC33B107D9F721E0ACE3B1E0B0
S113009001C01D92A235B207E1F70E946D010C94D4
S11300A0F3010C940000982F907F9695969598B93B
S11300B098B19E7F98B998B1926098B9EFE9FFE042
S11300C03197F1F700C0000098B19D7F98B9EFE334
S11300D0FCE93197F1F700C0000090E0880F991F08
S11300E0880F991F8C7388B988B18E7F88B988B1BD
S11300F0826088B98FE99FE00197F1F700C00000A2
S113010088B18D7F88B9EFE3FCE93197F1F700C03E
S1130110000008958FEF87B98FE59AEE0197F1F704
S113012000C0000082E00E94530088E20E94530055
S11301308CE00E94530086E00E94530081E00E94FC
S1130140530080E80E9453000895982F907F96955D
S1130150969598B998B1936098B9EFE9FFE0319713
S1130160F1F700C0000098B19D7F98B998B19E7FC7
S113017098B9EFE3FCE93197F1F700C0000090E093
S1130180880F991F880F991F8C7388B988B1836071
S113019088B98FE99FE00197F1F700C0000088B1AA
S11301A08D7F88B988B18E7F88B9EFE3FCE93197F8
S11301B0F1F700C0000008950F931F93CF93DF93CE
S11301C08C01C0E0D0E003C00E94A5002196F80194
S11301D0EC0FFD1F80818111F7CFDF91CF911F912B
S11301E00F91089581E00E945300089580680E9451
S11301F053000895806C0E945300089580EF8AB9DB
S11302008FE08BB985E085BD82E484BD82E0809374
S11302106E0088EC87BD16BC08958230910569F1A3
S11302202CF4009751F00197C1F0089583309105A3
S1130230A1F1049709F441C008958BE987BD8DE0CD
S11302400E94F60081E30E94A50082E00E94FA0069
S113025080E091E00E94DC0008958DE487BD8DE08C
S11302600E94F60082E30E94A50082E00E94FA0048
S11302708AE091E00E94DC0008958FE087BD8DE064
S11302800E94F60083E30E94A50082E00E94FA0027
S113029083E191E00E94DC00089587E087BD8DE052
S11302A00E94F60084E30E94A50082E00E94FA0006
S11302B08CE191E00E94DC00089583E087BD8DE02D
S11302C00E94F60085E30E94A50082E00E94FA00E5
S11302D086E291E00E94DC00089510924F01109292
S11302E04E014AE06EE371E080E090E00E94BE01BE
S11302F00E948A000E94F20082E00E94F60080E3DD
S113030091E00E94DC0082E00E94FA008EE391E01A
S11303100E94DC000E94FE00C0E0D0E089B190E0C1
S113032090933D0180933C0129B130E03093510119
S1130330209350010E9779F4209729F480E090E0FF
S11303400E940D01EBCF219782E00E94FA00CE01BA
S11303500E940D01E3CF2D30310501F7C530D105E1
S113036029F485E090E00E940D01D8CF219682E027
S11303700E94FA00CE010E940D01D0CFBB274A3063
S113038031F4992322F4BDE2909581959F4F0C940A
S1130390CA01BB27FB015527AA27880F991FAA1F4B
S11303A0A41710F0A41B83955051B9F7A05DAA338C
S11303B008F0A95DA193009779F7B111B193119257
S11303C0CB010C94E301DC01FC01672F71917723CD
S11303D0E1F7329704C07C916D9370836291AE17FC
S10D03E0BF07C8F30895F894FFCF97
S11303EA203530202020487A200020313030202047
S11303FA487A00203530302020487A0020312020E5
S113040A206B487A200020322020206B487A200072
S10F041A4672656375656E6369612000BD
S9030000FC
