:100000000C9434000C9446000C9446000C9446006A
:100010000C9446000C9446000C9446000C94460048
:100020000C9446000C9446000C9446000C94460038
:100030000C9446000C9446000C9446000C94460028
:100040000C9446000C9446000C9446000C94460018
:100050000C9446000C9446000C9446000C94460008
:100060000C9446000C94460011241FBECFEFD8E03C
:10007000DEBFCDBF21E0A0E0B1E001C01D92A23003
:10008000B207E1F70E9448000C9465000C94000050
:1000900014B88FEF85B98AB983B190E090930101CC
:1000A000809300018FEC97E00197F1F700C000000A
:1000B000809100018BB99FEF24E38CE091502040A8
:0E00C0008040E1F700C00000E7CFF894FFCFCA
:00000001FF
