S00E000070385F6164632E73726563E7
S11300000C9434000C9451000C9451000C94510045
S11300100C9451000C9451000C9451000C94510018
S11300200C9451000C9451000C9451000C94510008
S11300300C9451000C9451000C9451000C945100F8
S11300400C9451000C9451000C9451000C945100E8
S11300500C9451000C9451000C9451000C945100D8
S11300600C9451000C94510011241FBECFEFD8E022
S1130070DEBFCDBF11E0A0E0B1E0E6EDF5E002C0E7
S113008005900D92A630B107D9F721E0A6E0B1E0C2
S113009001C01D92A631B207E1F70E942E010C9413
S11300A0E9020C940000982F907F9695969595B947
S11300B095B19E7F95B995B1926095B9EFE9FFE04E
S11300C03197F1F700C0000095B19D7F95B9EFE33A
S11300D0FCE93197F1F700C0000090E0880F991F08
S11300E0880F991F8C7385B985B18E7F85B985B1C9
S11300F0826085B98FE99FE00197F1F700C00000A5
S113010085B18D7F85B9EFE3FCE93197F1F700C044
S1130110000008958FEF84B98FE59AEE0197F1F707
S113012000C0000082E00E94530088E20E94530055
S11301308CE00E94530086E00E94530081E00E94FC
S1130140530080E80E9453000895982F907F96955D
S1130150969595B995B1936095B9EFE9FFE031971C
S1130160F1F700C0000095B19D7F95B995B19E7FD0
S113017095B9EFE3FCE93197F1F700C0000090E096
S1130180880F991F880F991F8C7385B985B1836077
S113019085B98FE99FE00197F1F700C0000085B1B0
S11301A08D7F85B985B18E7F85B9EFE3FCE9319701
S11301B0F1F700C0000008950F931F93CF93DF93CE
S11301C08C01C0E0D0E003C00E94A5002196F80194
S11301D0EC0FFD1F80818111F7CFDF91CF911F912B
S11301E00F910895ECE7F0E080818F7D808380811A
S11301F08064808380818F778083EAE7F0E0808168
S11302008160808380818260808380818460808338
S11302100895ECE7F0E09081907F90839081892BA2
S11302208083EAE7F0E080818068808385E38A95B3
S1130230F1F7000080818064808380917A0084FFDC
S1130240FCCFEAE7F0E080818061808380818F7752
S11302508083809178009091790008951AB88FEF87
S11302608BB984B90E948A002FEF89EF90E0215066
S113027080409040E1F700C0000080E091E00E94DF
S1130280DC002FEF89EF90E0215080409040E1F7AF
S113029000C00000F89484B1806284B90E94F20026
S11302A0789480E090E00E940901BC01990F880BCA
S11302B0990B0E94870120E030E040EA50E40E945C
S11302C0C70120E030E040E85AE30E94C7016B0117
S11302D07C012AE030E046E051E00E94A90286E079
S11302E091E00E94DC0020E030E040E450E4C701EB
S11302F0B6010E94C201181624F485B1806285B942
S1130300D0CF85B18F7D85B9CCCFE89409C097FB58
S11303103EF490958095709561957F4F8F4F9F4FD8
S11303209923A9F0F92F96E9BB279395F69587951C
S113033077956795B795F111F8CFFAF4BB0F11F4DF
S113034060FF1BC06F5F7F4F8F4F9F4F16C0882386
S113035011F096E911C0772321F09EE8872F762FBC
S113036005C0662371F096E8862F70E060E02AF0FD
S11303709A95660F771F881FDAF7880F96958795E9
S113038097F908950E94340208F48FEF08950E94AB
S1130390DA010C946F020E94610238F00E94680234
S11303A020F0952311F00C9458020C945E02112451
S11303B00C94A3020E94800270F3959FC1F3950FE1
S11303C050E0551F629FF001729FBB27F00DB11DD5
S11303D0639FAA27F00DB11DAA1F649F6627B00D65
S11303E0A11D661F829F2227B00DA11D621F739F4E
S11303F0B00DA11D621F839FA00D611D221F749F5C
S11304003327A00D611D231F849F600D211D822FA2
S1130410762F6A2F11249F5750409AF0F1F08823C9
S11304204AF0EE0FFF1FBB1F661F771F881F9150F6
S11304305040A9F79E3F510580F00C9458020C944B
S1130440A3025F3FE4F3983ED4F3869577956795CE
S1130450B795F795E7959F5FC1F7FE2B880F911D20
S11304609695879597F90895990F0008550FAA0B4B
S1130470E0E8FEEF16161706E807F907C0F01216B3
S11304801306E407F50798F0621B730B840B950BB6
S113049039F40A2661F0232B242B252B21F408950B
S11304A00A2609F4A140A6958FEF811D811D0895A8
S11304B097F99F6780E870E060E008959FEF80EC13
S11304C0089500240A9416161706180609060895B6
S11304D000240A9412161306140605060895092E1C
S11304E00394000C11F4882352F0BB0F40F4BF2B8B
S11304F011F460FF04C06F5F7F4F8F4F9F4F0895CB
S113050057FD9058440F551F59F05F3F71F04795C0
S1130510880F97FB991F61F09F3F79F087950895A5
S1130520121613061406551FF2CF4695F1DF08C0C4
S1130530161617061806991FF1CF869571056105E1
S113054008940895E894BB2766277727CB0197F989
S113055008954532510520F4423010F00C94B40251
S1130560FB011082CB010895BB274A3031F4992353
S113057022F4BDE2909581959F4F0C94C002BB2755
S1130580FB015527AA27880F991FAA1FA41710F04B
S1130590A41B83955051B9F7A05DAA3308F0A95D57
S11305A0A193009779F7B111B1931192CB010C94F7
S11305B0D902DC01FC01672F71917723E1F73297AF
S11305C004C07C916D9370836291AE17BF07C8F32A
S10905D00895F894FFCF2A
S10905D6486F6C61000097
S9030000FC
