:100000000C9434000C9409020C945A020C94510084
:100010000C9451000C9451000C9451000C9451001C
:100020000C9451000C9451000C9451000C9451000C
:100030000C9451000C9451000C9451000C945100FC
:100040000C9451000C9451000C9451000C945100EC
:100050000C9451000C9451000C9451000C945100DC
:100060000C9451000C94510011241FBECFEFD8E026
:10007000DEBFCDBF11E0A0E0B1E0E0ECF6E002C0F1
:1000800005900D92A631B107D9F721E0A6E1B1E0C4
:1000900001C01D92AC32B207E1F70E94B4010C948A
:1000A0005E030C940000982F907F9695969598B9D2
:1000B00098B19E7F98B998B1926098B9EFE9FFE046
:1000C0003197F1F700C0000098B19D7F98B9EFE338
:1000D000FCE93197F1F700C0000090E0880F991F0C
:1000E000880F991F8C7388B988B18E7F88B988B1C1
:1000F000826088B98FE99FE00197F1F700C00000A6
:1001000088B18D7F88B9EFE3FCE93197F1F700C042
:10011000000008958FEF87B98FE59AEE0197F1F708
:1001200000C0000082E00E94530088E20E94530059
:100130008CE00E94530086E00E94530081E00E9400
:10014000530080E80E9453000895982F907F969561
:10015000969598B998B1936098B9EFE9FFE0319717
:10016000F1F700C0000098B19D7F98B998B19E7FCB
:1001700098B9EFE3FCE93197F1F700C0000090E097
:10018000880F991F880F991F8C7388B988B1836075
:1001900088B98FE99FE00197F1F700C0000088B1AE
:1001A0008D7F88B988B18E7F88B9EFE3FCE93197FC
:1001B000F1F700C0000008950F931F93CF93DF93D2
:1001C0008C01C0E0D0E003C00E94A5002196F80198
:1001D000EC0FFD1F80818111F7CFDF91CF911F912F
:1001E0000F91089581E00E94530008959C01E0E87A
:1001F000F0E080818E7F8083808182608083E1E86F
:10020000F0E080818860808380818061808384B514
:10021000816084BD84B58D7F84BD85B5877F85BDB4
:100220003093170120931601032E000C440B550B3D
:1002300069E07DE380E090E00E94BF022150310937
:1002400030938700209386000895109285001092C5
:100250008400E1E8F0E080818160808380818D7F8F
:10026000808380818460808316BC85B5816085BD74
:1002700085B58D7F85BD85B5846085BD0895CF9397
:10028000DF93EC0184B1826084B9E0E8F0E0808122
:100290008F7B8083808180688083209116013091DC
:1002A0001701032E000C440B550B69E07DE380E041
:1002B00090E00E94BF022150310941095109DE013D
:1002C0000E94E80224E630E040E050E00E94BF02D5
:1002D0003093890020938800DF91CF910895CF93C8
:1002E000DF93EC0184B1846084B9E0E8F0E08081C0
:1002F0008F7E80838081806280832091160130917F
:100300001701032E000C440B550B69E07DE380E0E0
:1003100090E00E94BF022150310941095109DE01DC
:100320000E94E80224E630E040E050E00E94BF0274
:1003300030938B0020938A00DF91CF9108952AB1EA
:1003400020642AB924B524BD24B5206224BD2FEF32
:10035000AC01249FC001259F900D112464E670E03C
:100360000E94AB0268BD089580EF8AB98FE08BB917
:100370008FEF87B90E948A002FEF89EF90E021501C
:1003800080409040E1F700C00000F89484E690E0DF
:100390000E94F600E9E6F0E080818260808380813F
:1003A0008C6080838DB383608DBB789484E190E012
:1003B00090931901809318010E943F018EE190E013
:1003C0000E946F0184E190E00E949F010E9425013C
:1003D000FFCFCF93DF93EC012BE930E0DC010E94EB
:1003E000E10224E630E040E050E00E94BF0230939A
:1003F0008B0020938A002FEF2C9FC0012D9F900D22
:10040000112464E670E00E94AB0268BDDF91CF91D9
:1004100008951F920F920FB60F9211242F933F93BE
:100420004F935F936F937F938F939F93AF93BF93FC
:10043000EF93FF9380911801909119010A968536E8
:10044000910534F490931901809318010E94E901F9
:10045000809118019091190190932B0180932A01AA
:100460004AE050E06AE171E00E941E038AE191E0F7
:100470000E94DC0080E091E00E94DC002FEF83ED21
:1004800090E3215080409040E1F700C000000E94BE
:10049000F200FF91EF91BF91AF919F918F917F916A
:1004A0006F915F914F913F912F910F900FBE0F90E1
:1004B0001F9018951F920F920FB60F9211242F9331
:1004C0003F934F935F936F937F938F939F93AF93DC
:1004D000BF93EF93FF9380911801909119018B3096
:1004E00091053CF00A9790931901809318010E949E
:1004F000E901809118019091190190932B0180934B
:100500002A014AE050E06AE171E00E941E038AE19C
:1005100091E00E94DC008AE091E00E94DC002FEF75
:1005200083ED90E3215080409040E1F700C000004F
:100530000E94F200FF91EF91BF91AF919F918F9137
:100540007F916F915F914F913F912F910F900FBECF
:100550000F901F90189597FB072E16F4009407D064
:1005600077FD09D00E94F00207FC05D03EF490957B
:1005700081959F4F0895709561957F4F0895A1E2F1
:100580001A2EAA1BBB1BFD010DC0AA1FBB1FEE1F0D
:10059000FF1FA217B307E407F50720F0A21BB30B58
:1005A000E40BF50B661F771F881F991F1A9469F7D4
:1005B00060957095809590959B01AC01BD01CF0130
:1005C00008950E940403B7FF0895821B930B0895BA
:1005D000B7FF0C9413030E941303821B930B08951F
:1005E000AA1BBB1B51E107C0AA1FBB1FA617B70759
:1005F00010F0A61BB70B881F991F5A95A9F7809575
:100600009095BC01CD010895A29FB001B39FC00198
:10061000A39F700D811D1124911DB29F700D811D2E
:100620001124911D08950E940403A59F900DB49F6D
:10063000900DA49F800D911D112408954532510500
:1006400020F4423010F00C942903FB011082CB01FE
:100650000895BB274A3031F4992322F4BDE29095E6
:1006600081959F4F0C943503BB27FB015527AA2783
:10067000880F991FAA1FA41710F0A41B839550512F
:10068000B9F7A05DAA3308F0A95DA193009779F7A7
:10069000B111B1931192CB010C944E03DC01FC011A
:1006A000672F71917723E1F7329704C07C916D93A6
:1006B00070836291AE17BF07C8F30895F894FFCF17
:1006C00020252064757479202B0020202520647556
:0606D0007479202D0000EA
:00000001FF
