S01A00004C43445F43686172457370656369616C65732E737265635C
S11300000C9443000C9460000C9460000C94600009
S11300100C9460000C9460000C9460000C946000DC
S11300200C9460000C9460000C9460000C946000CC
S11300300C9460000C9460000C9460000C946000BC
S11300400C9460000C9460000C9460000C946000AC
S11300500C9460000C9460000C9460000C9460009C
S11300600C9460000C946000B902F701E102F701FE
S1130070F7010302180228023802480258026802F3
S113008078028802A40211241FBECFEFD8E0DEBF9D
S1130090CDBF11E0A0E0B1E0E4E2F6E002C00590DB
S11300A00D92AE3BB107D9F721E0AEEBB1E001C050
S11300B01D92A03CB207E1F70E94C7010C94100303
S11300C00C940000982F907F9695969598B998B1C6
S11300D09E7F98B998B1926098B9EFE9FFE03197A3
S11300E0F1F700C0000098B19D7F98B9EFE3FCE9F7
S11300F03197F1F700C0000090E0880F991F880F36
S1130100991F8C7388B988B18E7F88B988B1826051
S113011088B98FE99FE00197F1F700C0000088B12A
S11301208D7F88B9EFE3FCE93197F1F700C0000057
S113013008958FEF87B98FE59AEE0197F1F700C024
S1130140000082E00E94620088E20E9462008CE06B
S11301500E94620086E00E94620081E00E946200C8
S113016080E80E9462000895982F907F9695969556
S113017098B998B1936098B9EFE9FFE03197F1F736
S113018000C0000098B19D7F98B998B19E7F98B93E
S1130190EFE3FCE93197F1F700C0000090E0880F2D
S11301A0991F880F991F8C7388B988B1836088B9A7
S11301B08FE99FE00197F1F700C0000088B18D7FBF
S11301C088B988B18E7F88B9EFE3FCE93197F1F7FC
S11301D000C0000008950F931F93CF93DF938C0109
S11301E0862F90E00896880F880F880F0E9462007F
S11301F0C0E0D0E007C0F801EC0FFD1F80810E9431
S1130200B4002196C830D105B4F3DF91CF911F918A
S11302100F9108950F931F93CF93DF938C01C0E048
S1130220D0E003C00E94B4002196F801EC0FFD1F3A
S113023080818111F7CFDF91CF911F910F910895A4
S113024081E00E946200089582E00E9462000895A5
S11302508CE10E946200089580680E946200089503
S1130260806C0E946200089580EF8AB98FEF8BB989
S11302708BB18F708BB9000089B18F708093BE01F0
S11302808F30B1F72FEF89EF90E0215080409040FC
S1130290E1F700C0000089B18F708093BE018F30F8
S11302A089F32FEF83EF91E0215080409040E1F7F4
S11302B000C0000089B18F708093BE018F3011F3AC
S11302C08FEE8BB9000089B18F708093BE018F309F
S11302D019F01092BF0127C08FED8BB9000089B1CE
S11302E08F708093BE018F3021F081E08093BF0135
S11302F01AC08FEB8BB9000089B18F708093BE0157
S11303008F3021F082E08093BF010DC08FE78BB95D
S1130310000089B18F708093BE018F3009F4A4CF9F
S113032083E08093BF018091BE018E3059F4E09147
S1130330BF01F0E0EE0FFF1FEE0FFF1FE859FE4F65
S1130340808108958D3059F4E091BF01F0E0EE0F03
S1130350FF1FEE0FFF1FE859FE4F818108958B3078
S113036059F4E091BF01F0E0EE0FFF1FEE0FFF1F05
S1130370E859FE4F82810895E091BF01F0E0EE0F4D
S1130380FF1FEE0FFF1FE859FE4F838108950E945F
S113039099000E9424010E94280160E080E691E017
S11303A00E94EB0061E088E591E00E94EB0062E0CE
S11303B080E591E00E94EB0063E088E491E00E9414
S11303C0EB0064E080E491E00E94EB0065E088E3E8
S11303D091E00E94EB0066E080E391E00E94EB0074
S11303E067E088E291E00E94EB008FEF84B90E94FD
S11303F0340190E0FC01BB97EF30F105C0F7EC5CF1
S1130400FF4F0C940A030E94200160E080E691E013
S11304100E94EB0086E80E94620080E00E94B40023
S113042083E00E94300188E791E00E940A01DFCF57
S11304300E94200186E80E94620081E00E94B400CC
S113044083E00E9430018EE791E00E940A01CFCF41
S11304500E94200186E80E94620082E00E94B400AB
S113046083E00E94300184E891E00E940A01BFCF3A
S11304700E94200186E80E94620083E00E94B4008A
S113048083E00E9430018AE891E00E940A01AFCF24
S11304900E94200186E80E94620084E00E94B40069
S11304A083E00E94300180E991E00E940A019FCF1D
S11304B00E94200186E80E94620085E00E94B40048
S11304C083E00E94300186E991E00E940A018FCF07
S11304D00E94200186E80E94620086E00E94B40027
S11304E083E00E9430018CE991E00E940A017FCFF1
S11304F00E94200186E80E94620087E00E94B40006
S113050083E00E94300182EA91E00E940A016FCFE9
S11305100E94200183E00E94300188EA91E00E9459
S11305200A0180E00E94B40060E080E291E00E9451
S1130530EB0086E80E94620080E00E94B4008AEA30
S113054091E00E940A0153CF0E9420010E942801D9
S113055080E00E94B40081E00E942C0189E30E94A3
S1130560B40081E00E9430018FEA91E00E940A0108
S11305703ECF0E9420010E94280184E00E943001A5
S113058084E00E94B40082E00E94B40083E00E94F0
S1130590B40081E00E94B40062E088E191E00E942E
S11305A0EB0063E080E191E00E94EB0064E088E00E
S11305B091E00E94EB0061E080E091E00E94EB009A
S11305C016CF60E080E691E00E94EB0061E088E5F0
S11305D091E00E94EB0062E080E591E00E94EB0074
S11305E063E088E491E00E94EB0064E080E491E041
S11305F00E94EB0065E088E391E00E94EB0066E076
S113060080E391E00E94EB0067E088E291E00E94C1
S1130610EB00EDCEEE0FFF1F0590F491E02D099451
S1070620F894FFCF78
S113062400001F1E1C18000000001F0F0703000019
S1130634041C1F1F1F1F1E1C04071F1F1F1F0F073F
S1130644070F1F181F1F0F07111B1B1F151F0E0455
S113065400001B1F1F0E040004040E0E1F1D1B0E9E
S1130664000A0A0011111F0E001F111115111F1F7A
S113067400111F1F1F11111100151515151515153E
S11306841F15151F0A151F003738392F3435362A1C
S11306943132332D20303D2B30202D205000312099
S11306A42D20500032202D20500033202D205000C6
S11306B434202D204A0035202D204A0036202D20B8
S11306C44A0037202D204A00380048455920004A62
S11106D4617A6D696E20466C6F72657300006A
S9030000FC
