:100000000C9434000C9451000C9451000C94510049
:100010000C9451000C9451000C9451000C9451001C
:100020000C9451000C9451000C9451000C9451000C
:100030000C9451000C9451000C9451000C945100FC
:100040000C9451000C9451000C9451000C945100EC
:100050000C9451000C9451000C9451000C945100DC
:100060000C9451000C94510011241FBECFEFD8E026
:10007000DEBFCDBF11E0A0E0B1E0E6E0F1E002C0FC
:1000800005900D92A430B107D9F721E0A4E0B1E0CA
:1000900001C01D92A630B207E1F70E9453000C94F4
:1000A00081000C9400008FEF84B98AB9E2E0F1E09E
:1000B000808185B9A0E0B1E08C918BB92FEF89E602
:1000C00098E1215080409040E1F700C000008C9101
:1000D00085B980818BB92FEF89E698E12150804066
:1000E0009040E1F700C00000E4E0F1E0808185B9D4
:1000F00080818BB98FEC97E00197F1F700C0000089
:06010000D5CFF894FFCFFB
:040106005500AA00F6
:00000001FF
