:100000000C9434000C9485010C94D6010C9451008E
:100010000C9451000C9451000C9451000C9451001C
:100020000C9451000C9451000C9451000C9451000C
:100030000C9451000C9451000C9451000C945100FC
:100040000C9451000C9451000C9451000C945100EC
:100050000C9451000C9451000C9451000C945100DC
:100060000C9451000C94510011241FBECFEFD8E026
:10007000DEBFCDBF11E0A0E0B1E0E8E6F5E002C0F0
:1000800005900D92A631B107D9F721E0A6E1B1E0C4
:1000900001C01D92AA32B207E1F70E944A010C94F6
:1000A000B2020C940000982F907F9695969598B97F
:1000B00098B19E7F98B998B1926098B9EFE9FFE046
:1000C0003197F1F700C0000098B19D7F98B9EFE338
:1000D000FCE93197F1F700C0000090E0880F991F0C
:1000E000880F991F8C7388B988B18E7F88B988B1C1
:1000F000826088B98FE99FE00197F1F700C00000A6
:1001000088B18D7F88B9EFE3FCE93197F1F700C042
:100110000000089582E00E94530088E20E9453008C
:100120008EE00E94530086E00E94530081E00E940E
:10013000530080E80E9453000895982F907F969571
:10014000969598B998B1936098B9EFE9FFE0319727
:10015000F1F700C0000098B19D7F98B998B19E7FDB
:1001600098B9EFE3FCE93197F1F700C0000090E0A7
:10017000880F991F880F991F8C7388B988B1836085
:1001800088B98FE99FE00197F1F700C0000088B1BE
:100190008D7F88B988B18E7F88B9EFE3FCE931970C
:1001A000F1F700C0000008950F931F93CF93DF93E2
:1001B0008C01C0E0D0E003C00E949D002196F801B0
:1001C000EC0FFD1F80818111F7CFDF91CF911F913F
:1001D0000F91089581E00E9453000895CF93DF931B
:1001E0009C01EB0182E084B984E084B9E0E8F0E0AE
:1001F00080818F7B808380818068808380818F7EF7
:10020000808380818062808380818E7F80838081F3
:1002100082608083E1E8F0E0808188608083808173
:1002200080618083032E000C440B550B69E07DE355
:1002300080E090E00E942702C90101979093870017
:10024000809386002150310941095109DE010E9445
:10025000500224E630E040E050E00E942702309354
:1002600089002093880030938B0020938A00DF91CF
:10027000CF9108951092850010928400E1E8F0E09B
:1002800080818160808380818D7F80838081846094
:10029000808308951AB88FEF8BB987B90E948A00BE
:1002A0002FEF89EF90E0215080409040E1F700C0AF
:1002B0000000F89464E170E084E690E00E94EE00B3
:1002C00084E190E09093170180931601E9E6F0E055
:1002D00080818260808380818C6080838DB3836025
:1002E0008DBB78940E943A01FFCF2BE930E0DC010E
:1002F0000E94490224E630E040E050E00E942702DC
:1003000030938B0020938A0008951F920F920FB6AE
:100310000F9211242F933F934F935F936F937F938B
:100320008F939F93AF93BF93EF93FF9380911601A9
:10033000909117010A968536910534F49093170130
:10034000809316010E94750180911601909117010A
:1003500090932901809328014AE050E068E171E020
:100360000E94720288E191E00E94D40080E091E056
:100370000E94D4002FEF83ED90E321508040904005
:10038000E1F700C000000E94EA00FF91EF91BF91E9
:10039000AF919F918F917F916F915F914F913F911D
:1003A0002F910F900FBE0F901F9018951F920F92D4
:1003B0000FB60F9211242F933F934F935F936F9338
:1003C0007F938F939F93AF93BF93EF93FF9380910E
:1003D0001601909117018B3091053CF00A9790938C
:1003E0001701809316010E9475018091160190916A
:1003F000170190932901809328014AE050E068E1B9
:1004000071E00E94720288E191E00E94D4008AE0CB
:1004100091E00E94D4002FEF83ED90E321508040C3
:100420009040E1F700C000000E94EA00FF91EF91C8
:10043000BF91AF919F918F917F916F915F914F91FC
:100440003F912F910F900FBE0F901F901895A1E232
:100450001A2EAA1BBB1BFD010DC0AA1FBB1FEE1F3E
:10046000FF1FA217B307E407F50720F0A21BB30B89
:10047000E40BF50B661F771F881F991F1A9469F705
:1004800060957095809590959B01AC01BD01CF0161
:1004900008950E945802B7FF0895821B930B089598
:1004A000B7FF0C9467020E946702821B930B0895AA
:1004B000A29FB001B39FC001A39F700D811D1124A5
:1004C000911DB29F700D811D1124911D08950E94F0
:1004D0005802A59F900DB49F900DA49F800D911D73
:1004E000112408954532510520F4423010F00C9447
:1004F0007D02FB011082CB010895BB274A3031F405
:10050000992322F4BDE2909581959F4F0C94890226
:10051000BB27FB015527AA27880F991FAA1FA417DD
:1005200010F0A41B83955051B9F7A05DAA3308F0D1
:10053000A95DA193009779F7B111B1931192CB0105
:100540000C94A202DC01FC01672F71917723E1F783
:10055000329704C07C916D9370836291AE17BF0790
:08056000C8F30895F894FFCFE1
:1005680020252064757479202B00202025206475AF
:060578007479202D000043
:00000001FF
