:100000000C9434000C9451000C9451000C94510049
:100010000C9451000C9451000C9451000C9451001C
:100020000C9451000C9451000C9451000C9451000C
:100030000C9451000C9451000C9451000C945100FC
:100040000C9451000C9451000C9451000C945100EC
:100050000C9451000C9451000C9451000C945100DC
:100060000C9451000C94510011241FBECFEFD8E026
:10007000DEBFCDBF11E0A0E0B1E0E6ECF2E002C0EF
:1000800005900D92AE31B107D9F721E0AEE1B1E0B4
:1000900001C01D92A032B207E1F70E94E8000C9463
:1000A00061010C9400009BB19F70282F207F922B40
:1000B0009BB99BB19E7F9BB99BB192609BB935E088
:1000C0003A95F1F700009BB19D7F9BB9EFE1F3E01A
:1000D0003197F1F700C000002BB1F0E18F9FC00114
:1000E0001124922F9F70892B8BB98BB182608BB9B1
:1000F00035E03A95F1F700008BB18D7F8BB98FE336
:100100009FE10197F1F700C0000008958FEF8AB9D1
:100110008FE59AEE0197F1F700C0000082E090E0D1
:100120000E94530088E290E00E9453008CE090E02F
:100130000E94530086E090E00E94530081E090E02E
:100140000E9453008FE39FE10197F1F700C0000088
:100150000895FC0160E070E034C08BB18F70907F37
:10016000982B9BB98BB181608BB98BB182608BB9B5
:1001700085E08A95F1F700008BB18D7F8BB98FE117
:1001800093E00197F1F700C000004BB19C9180E132
:10019000989F90011124942F9F70292B2BB99BB10C
:1001A00092609BB995E09A95F1F700009BB19D7F15
:1001B0009BB98FE39FE10197F1F700C000006F5FEB
:1001C0007F4FDF01A60FB71F9C919111C6CF0895F5
:1001D000CF93DF93CDB7DEB760970FB6F894DEBF4D
:1001E0000FBECDBF0E94860080E091E00E94A90072
:1001F0004AE050E0BE016F5F7F4F80911E019091F9
:100200001F010E94210180EC0E94530080E191E0D7
:100210000E94A900CE0101960E94A9002FEF83ED54
:1002200090E3215080409040E1F700C000008091B1
:100230001E0190911F01019690931F0180931E0152
:10024000D7CF4532510520F4423010F00C942C01E8
:10025000FB011082CB010895BB274A3031F499236A
:1002600022F4BDE2909581959F4F0C943801BB27F5
:10027000FB015527AA27880F991FAA1FA41710F062
:10028000A41B83955051B9F7A05DAA3308F0A95D6E
:10029000A193009779F7B111B1931192CB010C940E
:1002A0005101DC01FC01672F71917723E1F732974F
:1002B00004C07C916D9370836291AE17BF07C8F341
:0602C0000895F894FFCF41
:1002C6005757572E4145512D5745422E434F4D0006
:0E02D60052554E54494D45202873293A2000B8
:00000001FF
