S01100005031302D55534152542E73726563A6
S11300000C9434000C9451000C9451000C94510045
S11300100C9451000C9451000C9451000C94510018
S11300200C9451000C9451000C9451000C94510008
S11300300C9451000C9451000C9451000C945100F8
S11300400C9451000C9451000C9451000C945100E8
S11300500C9451000C9451000C9451000C945100D8
S11300600C9451000C94510011241FBECFEFD8E022
S1130070DEBFCDBF11E0A0E0B1E0EEE9F2E002C0E6
S113008005900D92A431B107D9F721E0A4E1B1E0C4
S113009001C01D92A932B207E1F70E9417010C9426
S11300A04D010C940000982F907F9695969595B9E4
S11300B095B19E7F95B995B1926095B9EFE9FFE04E
S11300C03197F1F700C0000095B19D7F95B9EFE33A
S11300D0FCE93197F1F700C0000090E0880F991F08
S11300E0880F991F8C7385B985B18E7F85B985B1C9
S11300F0826085B98FE99FE00197F1F700C00000A5
S113010085B18D7F85B9EFE3FCE93197F1F700C044
S11301100000089582E00E94530088E20E94530088
S11301208EE00E94530086E00E94530081E00E940A
S1130130530080E80E9453000895982F907F96956D
S1130140969595B995B1936095B9EFE9FFE031972C
S1130150F1F700C0000095B19D7F95B995B19E7FE0
S113016095B9EFE9FFE03197F1F700C0000090E0A6
S1130170880F991F880F991F8C7385B985B1836087
S113018085B98FE99FE00197F1F700C0000085B1C0
S11301908D7F85B985B18E7F85B9EFE9FFE0319711
S11301A0F1F700C0000008950F931F93CF93DF93DE
S11301B08C01C0E0D0E003C00E949D002196F801AC
S11301C0EC0FFD1F80818111F7CFDF91CF911F913B
S11301D00F91089581E00E945300089580680E9461
S11301E053000895806C0E94530008958091C000CC
S11301F08823E4F78091C60090E008958FEF84B9D6
S1130200E0ECF0E0108280818083E1ECF0E088E1B2
S1130210808380818083E2ECF0E0108280818660BC
S113022080831092C50087E68093C40008950E94DD
S1130230FE000E948A008FE39CE90197F1F700C059
S113024000000E94EA008FE39CE90197F1F700C0E7
S1130250000080E00E94EE0080E091E00E94D40063
S113026083E00E94F2000E94F600909315018093AF
S113027014018FE39CE90197F1F700C0000080911D
S113028014010E949D009FEF21EE84E091502040D4
S11102908040E1F700C00000E6CFF894FFCFF5
S113029E4461746F206465206C6120636F6D7075AA
S10702AE3A200000EE
S9030000FC
